{
  "_format": "hh-sol-artifact-1",
  "contractName": "SCZTokenUpgradeable",
  "sourceName": "contracts/SCZTokenUpgradeable.sol",
  "abi": [
    {
      "inputs": [
        {
          "internalType": "address",
          "name": "spender",
          "type": "address"
        },
        {
          "internalType": "uint256",
          "name": "allowance",
          "type": "uint256"
        },
        {
          "internalType": "uint256",
          "name": "needed",
          "type": "uint256"
        }
      ],
      "name": "ERC20InsufficientAllowance",
      "type": "error"
    },
    {
      "inputs": [
        {
          "internalType": "address",
          "name": "sender",
          "type": "address"
        },
        {
          "internalType": "uint256",
          "name": "balance",
          "type": "uint256"
        },
        {
          "internalType": "uint256",
          "name": "needed",
          "type": "uint256"
        }
      ],
      "name": "ERC20InsufficientBalance",
      "type": "error"
    },
    {
      "inputs": [
        {
          "internalType": "address",
          "name": "approver",
          "type": "address"
        }
      ],
      "name": "ERC20InvalidApprover",
      "type": "error"
    },
    {
      "inputs": [
        {
          "internalType": "address",
          "name": "receiver",
          "type": "address"
        }
      ],
      "name": "ERC20InvalidReceiver",
      "type": "error"
    },
    {
      "inputs": [
        {
          "internalType": "address",
          "name": "sender",
          "type": "address"
        }
      ],
      "name": "ERC20InvalidSender",
      "type": "error"
    },
    {
      "inputs": [
        {
          "internalType": "address",
          "name": "spender",
          "type": "address"
        }
      ],
      "name": "ERC20InvalidSpender",
      "type": "error"
    },
    {
      "inputs": [],
      "name": "InvalidInitialization",
      "type": "error"
    },
    {
      "inputs": [],
      "name": "NotInitializing",
      "type": "error"
    },
    {
      "inputs": [
        {
          "internalType": "address",
          "name": "owner",
          "type": "address"
        }
      ],
      "name": "OwnableInvalidOwner",
      "type": "error"
    },
    {
      "inputs": [
        {
          "internalType": "address",
          "name": "account",
          "type": "address"
        }
      ],
      "name": "OwnableUnauthorizedAccount",
      "type": "error"
    },
    {
      "anonymous": false,
      "inputs": [
        {
          "indexed": true,
          "internalType": "address",
          "name": "owner",
          "type": "address"
        },
        {
          "indexed": true,
          "internalType": "address",
          "name": "spender",
          "type": "address"
        },
        {
          "indexed": false,
          "internalType": "uint256",
          "name": "value",
          "type": "uint256"
        }
      ],
      "name": "Approval",
      "type": "event"
    },
    {
      "anonymous": false,
      "inputs": [
        {
          "indexed": false,
          "internalType": "uint64",
          "name": "version",
          "type": "uint64"
        }
      ],
      "name": "Initialized",
      "type": "event"
    },
    {
      "anonymous": false,
      "inputs": [
        {
          "indexed": true,
          "internalType": "address",
          "name": "previousOwner",
          "type": "address"
        },
        {
          "indexed": true,
          "internalType": "address",
          "name": "newOwner",
          "type": "address"
        }
      ],
      "name": "OwnershipTransferred",
      "type": "event"
    },
    {
      "anonymous": false,
      "inputs": [
        {
          "indexed": true,
          "internalType": "address",
          "name": "from",
          "type": "address"
        },
        {
          "indexed": true,
          "internalType": "address",
          "name": "to",
          "type": "address"
        },
        {
          "indexed": false,
          "internalType": "uint256",
          "name": "value",
          "type": "uint256"
        }
      ],
      "name": "Transfer",
      "type": "event"
    },
    {
      "inputs": [
        {
          "internalType": "address",
          "name": "owner",
          "type": "address"
        },
        {
          "internalType": "address",
          "name": "spender",
          "type": "address"
        }
      ],
      "name": "allowance",
      "outputs": [
        {
          "internalType": "uint256",
          "name": "",
          "type": "uint256"
        }
      ],
      "stateMutability": "view",
      "type": "function"
    },
    {
      "inputs": [
        {
          "internalType": "address",
          "name": "spender",
          "type": "address"
        },
        {
          "internalType": "uint256",
          "name": "value",
          "type": "uint256"
        }
      ],
      "name": "approve",
      "outputs": [
        {
          "internalType": "bool",
          "name": "",
          "type": "bool"
        }
      ],
      "stateMutability": "nonpayable",
      "type": "function"
    },
    {
      "inputs": [
        {
          "internalType": "address",
          "name": "account",
          "type": "address"
        }
      ],
      "name": "balanceOf",
      "outputs": [
        {
          "internalType": "uint256",
          "name": "",
          "type": "uint256"
        }
      ],
      "stateMutability": "view",
      "type": "function"
    },
    {
      "inputs": [],
      "name": "decimals",
      "outputs": [
        {
          "internalType": "uint8",
          "name": "",
          "type": "uint8"
        }
      ],
      "stateMutability": "view",
      "type": "function"
    },
    {
      "inputs": [],
      "name": "initialize",
      "outputs": [],
      "stateMutability": "nonpayable",
      "type": "function"
    },
    {
      "inputs": [
        {
          "internalType": "address",
          "name": "to",
          "type": "address"
        },
        {
          "internalType": "uint256",
          "name": "amount",
          "type": "uint256"
        }
      ],
      "name": "mint",
      "outputs": [],
      "stateMutability": "nonpayable",
      "type": "function"
    },
    {
      "inputs": [],
      "name": "name",
      "outputs": [
        {
          "internalType": "string",
          "name": "",
          "type": "string"
        }
      ],
      "stateMutability": "view",
      "type": "function"
    },
    {
      "inputs": [],
      "name": "owner",
      "outputs": [
        {
          "internalType": "address",
          "name": "",
          "type": "address"
        }
      ],
      "stateMutability": "view",
      "type": "function"
    },
    {
      "inputs": [],
      "name": "renounceOwnership",
      "outputs": [],
      "stateMutability": "nonpayable",
      "type": "function"
    },
    {
      "inputs": [],
      "name": "symbol",
      "outputs": [
        {
          "internalType": "string",
          "name": "",
          "type": "string"
        }
      ],
      "stateMutability": "view",
      "type": "function"
    },
    {
      "inputs": [],
      "name": "totalSupply",
      "outputs": [
        {
          "internalType": "uint256",
          "name": "",
          "type": "uint256"
        }
      ],
      "stateMutability": "view",
      "type": "function"
    },
    {
      "inputs": [
        {
          "internalType": "address",
          "name": "to",
          "type": "address"
        },
        {
          "internalType": "uint256",
          "name": "value",
          "type": "uint256"
        }
      ],
      "name": "transfer",
      "outputs": [
        {
          "internalType": "bool",
          "name": "",
          "type": "bool"
        }
      ],
      "stateMutability": "nonpayable",
      "type": "function"
    },
    {
      "inputs": [
        {
          "internalType": "address",
          "name": "from",
          "type": "address"
        },
        {
          "internalType": "address",
          "name": "to",
          "type": "address"
        },
        {
          "internalType": "uint256",
          "name": "value",
          "type": "uint256"
        }
      ],
      "name": "transferFrom",
      "outputs": [
        {
          "internalType": "bool",
          "name": "",
          "type": "bool"
        }
      ],
      "stateMutability": "nonpayable",
      "type": "function"
    },
    {
      "inputs": [
        {
          "internalType": "address",
          "name": "newOwner",
          "type": "address"
        }
      ],
      "name": "transferOwnership",
      "outputs": [],
      "stateMutability": "nonpayable",
      "type": "function"
    }
  ],
  "bytecode": "0x608060405234801561001057600080fd5b50611b1a806100206000396000f3fe608060405234801561001057600080fd5b50600436106100ea5760003560e01c8063715018a61161008c57806395d89b411161006657806395d89b4114610227578063a9059cbb14610245578063dd62ed3e14610275578063f2fde38b146102a5576100ea565b8063715018a6146101f55780638129fc1c146101ff5780638da5cb5b14610209576100ea565b806323b872dd116100c857806323b872dd1461015b578063313ce5671461018b57806340c10f19146101a957806370a08231146101c5576100ea565b806306fdde03146100ef578063095ea7b31461010d57806318160ddd1461013d575b600080fd5b6100f76102c1565b6040516101049190611297565b60405180910390f35b61012760048036038101906101229190611352565b610362565b60405161013491906113ad565b60405180910390f35b610145610385565b60405161015291906113d7565b60405180910390f35b610175600480360381019061017091906113f2565b61039d565b60405161018291906113ad565b60405180910390f35b6101936103cc565b6040516101a09190611461565b60405180910390f35b6101c360048036038101906101be9190611352565b6103d5565b005b6101df60048036038101906101da919061147c565b6103eb565b6040516101ec91906113d7565b60405180910390f35b6101fd610442565b005b610207610456565b005b610211610683565b60405161021e91906114b8565b60405180910390f35b61022f6106bb565b60405161023c9190611297565b60405180910390f35b61025f600480360381019061025a9190611352565b61075c565b60405161026c91906113ad565b60405180910390f35b61028f600480360381019061028a91906114d3565b61077f565b60405161029c91906113d7565b60405180910390f35b6102bf60048036038101906102ba919061147c565b610814565b005b606060006102cd61089a565b90508060030180546102de90611542565b80601f016020809104026020016040519081016040528092919081815260200182805461030a90611542565b80156103575780601f1061032c57610100808354040283529160200191610357565b820191906000526020600020905b81548152906001019060200180831161033a57829003601f168201915b505050505091505090565b60008061036d6108c2565b905061037a8185856108ca565b600191505092915050565b60008061039061089a565b9050806002015491505090565b6000806103a86108c2565b90506103b58582856108dc565b6103c0858585610971565b60019150509392505050565b60006012905090565b6103dd610a65565b6103e78282610aec565b5050565b6000806103f661089a565b90508060000160008473ffffffffffffffffffffffffffffffffffffffff1673ffffffffffffffffffffffffffffffffffffffff16815260200190815260200160002054915050919050565b61044a610a65565b6104546000610b6e565b565b6000610460610c45565b905060008160000160089054906101000a900460ff1615905060008260000160009054906101000a900467ffffffffffffffff1690506000808267ffffffffffffffff161480156104ae5750825b9050600060018367ffffffffffffffff161480156104e3575060003073ffffffffffffffffffffffffffffffffffffffff163b145b9050811580156104f1575080155b15610528576040517ff92ee8a900000000000000000000000000000000000000000000000000000000815260040160405180910390fd5b60018560000160006101000a81548167ffffffffffffffff021916908367ffffffffffffffff16021790555083156105785760018560000160086101000a81548160ff0219169083151502179055505b6105ec6040518060400160405280600981526020017f53435a20546f6b656e00000000000000000000000000000000000000000000008152506040518060400160405280600381526020017f53435a0000000000000000000000000000000000000000000000000000000000815250610c6d565b6105f533610c83565b610620336106016103cc565b600a61060d91906116d5565b620f424061061b9190611720565b610aec565b831561067c5760008560000160086101000a81548160ff0219169083151502179055507fc7f505b2f371ae2175ee4913f4499e1f2633a7b5936321eed1cdaeb6115181d2600160405161067391906117bb565b60405180910390a15b5050505050565b60008061068e610c97565b90508060000160009054906101000a900473ffffffffffffffffffffffffffffffffffffffff1691505090565b606060006106c761089a565b90508060040180546106d890611542565b80601f016020809104026020016040519081016040528092919081815260200182805461070490611542565b80156107515780601f1061072657610100808354040283529160200191610751565b820191906000526020600020905b81548152906001019060200180831161073457829003601f168201915b505050505091505090565b6000806107676108c2565b9050610774818585610971565b600191505092915050565b60008061078a61089a565b90508060010160008573ffffffffffffffffffffffffffffffffffffffff1673ffffffffffffffffffffffffffffffffffffffff16815260200190815260200160002060008473ffffffffffffffffffffffffffffffffffffffff1673ffffffffffffffffffffffffffffffffffffffff1681526020019081526020016000205491505092915050565b61081c610a65565b600073ffffffffffffffffffffffffffffffffffffffff168173ffffffffffffffffffffffffffffffffffffffff160361088e5760006040517f1e4fbdf700000000000000000000000000000000000000000000000000000000815260040161088591906114b8565b60405180910390fd5b61089781610b6e565b50565b60007f52c63247e1f47db19d5ce0460030c497f067ca4cebf71ba98eeadabe20bace00905090565b600033905090565b6108d78383836001610cbf565b505050565b60006108e8848461077f565b90507fffffffffffffffffffffffffffffffffffffffffffffffffffffffffffffffff81101561096b578181101561095b578281836040517ffb8f41b2000000000000000000000000000000000000000000000000000000008152600401610952939291906117d6565b60405180910390fd5b61096a84848484036000610cbf565b5b50505050565b600073ffffffffffffffffffffffffffffffffffffffff168373ffffffffffffffffffffffffffffffffffffffff16036109e35760006040517f96c6fd1e0000000000000000000000000000000000000000000000000000000081526004016109da91906114b8565b60405180910390fd5b600073ffffffffffffffffffffffffffffffffffffffff168273ffffffffffffffffffffffffffffffffffffffff1603610a555760006040517fec442f05000000000000000000000000000000000000000000000000000000008152600401610a4c91906114b8565b60405180910390fd5b610a60838383610ea5565b505050565b610a6d6108c2565b73ffffffffffffffffffffffffffffffffffffffff16610a8b610683565b73ffffffffffffffffffffffffffffffffffffffff1614610aea57610aae6108c2565b6040517f118cdaa7000000000000000000000000000000000000000000000000000000008152600401610ae191906114b8565b60405180910390fd5b565b600073ffffffffffffffffffffffffffffffffffffffff168273ffffffffffffffffffffffffffffffffffffffff1603610b5e5760006040517fec442f05000000000000000000000000000000000000000000000000000000008152600401610b5591906114b8565b60405180910390fd5b610b6a60008383610ea5565b5050565b6000610b78610c97565b905060008160000160009054906101000a900473ffffffffffffffffffffffffffffffffffffffff169050828260000160006101000a81548173ffffffffffffffffffffffffffffffffffffffff021916908373ffffffffffffffffffffffffffffffffffffffff1602179055508273ffffffffffffffffffffffffffffffffffffffff168173ffffffffffffffffffffffffffffffffffffffff167f8be0079c531659141344cd1fd0a4f28419497f9722a3daafe3b4186f6b6457e060405160405180910390a3505050565b60007ff0c57e16840df040f15088dc2f81fe391c3923bec73e23a9662efc9c229c6a00905090565b610c756110e4565b610c7f8282611124565b5050565b610c8b6110e4565b610c9481611161565b50565b60007f9016d09d72d40fdae2fd8ceac6b6234c7706214fd39c1cd1e609a0528c199300905090565b6000610cc961089a565b9050600073ffffffffffffffffffffffffffffffffffffffff168573ffffffffffffffffffffffffffffffffffffffff1603610d3d5760006040517fe602df05000000000000000000000000000000000000000000000000000000008152600401610d3491906114b8565b60405180910390fd5b600073ffffffffffffffffffffffffffffffffffffffff168473ffffffffffffffffffffffffffffffffffffffff1603610daf5760006040517f94280d62000000000000000000000000000000000000000000000000000000008152600401610da691906114b8565b60405180910390fd5b828160010160008773ffffffffffffffffffffffffffffffffffffffff1673ffffffffffffffffffffffffffffffffffffffff16815260200190815260200160002060008673ffffffffffffffffffffffffffffffffffffffff1673ffffffffffffffffffffffffffffffffffffffff168152602001908152602001600020819055508115610e9e578373ffffffffffffffffffffffffffffffffffffffff168573ffffffffffffffffffffffffffffffffffffffff167f8c5be1e5ebec7d5bd14f71427d1e84f3dd0314c0f7b2291e5b200ac8c7c3b92585604051610e9591906113d7565b60405180910390a35b5050505050565b6000610eaf61089a565b9050600073ffffffffffffffffffffffffffffffffffffffff168473ffffffffffffffffffffffffffffffffffffffff1603610f055781816002016000828254610ef9919061180d565b92505081905550610fde565b60008160000160008673ffffffffffffffffffffffffffffffffffffffff1673ffffffffffffffffffffffffffffffffffffffff16815260200190815260200160002054905082811015610f94578481846040517fe450d38c000000000000000000000000000000000000000000000000000000008152600401610f8b939291906117d6565b60405180910390fd5b8281038260000160008773ffffffffffffffffffffffffffffffffffffffff1673ffffffffffffffffffffffffffffffffffffffff16815260200190815260200160002081905550505b600073ffffffffffffffffffffffffffffffffffffffff168373ffffffffffffffffffffffffffffffffffffffff160361102957818160020160008282540392505081905550611079565b818160000160008573ffffffffffffffffffffffffffffffffffffffff1673ffffffffffffffffffffffffffffffffffffffff168152602001908152602001600020600082825401925050819055505b8273ffffffffffffffffffffffffffffffffffffffff168473ffffffffffffffffffffffffffffffffffffffff167fddf252ad1be2c89b69c2b068fc378daa952ba7f163c4a11628f55a4df523b3ef846040516110d691906113d7565b60405180910390a350505050565b6110ec6111e7565b611122576040517fd7e6bcf800000000000000000000000000000000000000000000000000000000815260040160405180910390fd5b565b61112c6110e4565b600061113661089a565b9050828160030190816111499190611a12565b508181600401908161115b9190611a12565b50505050565b6111696110e4565b600073ffffffffffffffffffffffffffffffffffffffff168173ffffffffffffffffffffffffffffffffffffffff16036111db5760006040517f1e4fbdf70000000000000000000000000000000000000000000000000000000081526004016111d291906114b8565b60405180910390fd5b6111e481610b6e565b50565b60006111f1610c45565b60000160089054906101000a900460ff16905090565b600081519050919050565b600082825260208201905092915050565b60005b83811015611241578082015181840152602081019050611226565b60008484015250505050565b6000601f19601f8301169050919050565b600061126982611207565b6112738185611212565b9350611283818560208601611223565b61128c8161124d565b840191505092915050565b600060208201905081810360008301526112b1818461125e565b905092915050565b600080fd5b600073ffffffffffffffffffffffffffffffffffffffff82169050919050565b60006112e9826112be565b9050919050565b6112f9816112de565b811461130457600080fd5b50565b600081359050611316816112f0565b92915050565b6000819050919050565b61132f8161131c565b811461133a57600080fd5b50565b60008135905061134c81611326565b92915050565b60008060408385031215611369576113686112b9565b5b600061137785828601611307565b92505060206113888582860161133d565b9150509250929050565b60008115159050919050565b6113a781611392565b82525050565b60006020820190506113c2600083018461139e565b92915050565b6113d18161131c565b82525050565b60006020820190506113ec60008301846113c8565b92915050565b60008060006060848603121561140b5761140a6112b9565b5b600061141986828701611307565b935050602061142a86828701611307565b925050604061143b8682870161133d565b9150509250925092565b600060ff82169050919050565b61145b81611445565b82525050565b60006020820190506114766000830184611452565b92915050565b600060208284031215611492576114916112b9565b5b60006114a084828501611307565b91505092915050565b6114b2816112de565b82525050565b60006020820190506114cd60008301846114a9565b92915050565b600080604083850312156114ea576114e96112b9565b5b60006114f885828601611307565b925050602061150985828601611307565b9150509250929050565b7f4e487b7100000000000000000000000000000000000000000000000000000000600052602260045260246000fd5b6000600282049050600182168061155a57607f821691505b60208210810361156d5761156c611513565b5b50919050565b7f4e487b7100000000000000000000000000000000000000000000000000000000600052601160045260246000fd5b60008160011c9050919050565b6000808291508390505b60018511156115f9578086048111156115d5576115d4611573565b5b60018516156115e45780820291505b80810290506115f2856115a2565b94506115b9565b94509492505050565b60008261161257600190506116ce565b8161162057600090506116ce565b816001811461163657600281146116405761166f565b60019150506116ce565b60ff84111561165257611651611573565b5b8360020a91508482111561166957611668611573565b5b506116ce565b5060208310610133831016604e8410600b84101617156116a45782820a90508381111561169f5761169e611573565b5b6116ce565b6116b184848460016115af565b925090508184048111156116c8576116c7611573565b5b81810290505b9392505050565b60006116e08261131c565b91506116eb83611445565b92506117187fffffffffffffffffffffffffffffffffffffffffffffffffffffffffffffffff8484611602565b905092915050565b600061172b8261131c565b91506117368361131c565b92508282026117448161131c565b9150828204841483151761175b5761175a611573565b5b5092915050565b6000819050919050565b600067ffffffffffffffff82169050919050565b6000819050919050565b60006117a56117a061179b84611762565b611780565b61176c565b9050919050565b6117b58161178a565b82525050565b60006020820190506117d060008301846117ac565b92915050565b60006060820190506117eb60008301866114a9565b6117f860208301856113c8565b61180560408301846113c8565b949350505050565b60006118188261131c565b91506118238361131c565b925082820190508082111561183b5761183a611573565b5b92915050565b7f4e487b7100000000000000000000000000000000000000000000000000000000600052604160045260246000fd5b60008190508160005260206000209050919050565b60006020601f8301049050919050565b600082821b905092915050565b6000600883026118d27fffffffffffffffffffffffffffffffffffffffffffffffffffffffffffffffff82611895565b6118dc8683611895565b95508019841693508086168417925050509392505050565b600061190f61190a6119058461131c565b611780565b61131c565b9050919050565b6000819050919050565b611929836118f4565b61193d61193582611916565b8484546118a2565b825550505050565b600090565b611952611945565b61195d818484611920565b505050565b5b818110156119815761197660008261194a565b600181019050611963565b5050565b601f8211156119c65761199781611870565b6119a084611885565b810160208510156119af578190505b6119c36119bb85611885565b830182611962565b50505b505050565b600082821c905092915050565b60006119e9600019846008026119cb565b1980831691505092915050565b6000611a0283836119d8565b9150826002028217905092915050565b611a1b82611207565b67ffffffffffffffff811115611a3457611a33611841565b5b611a3e8254611542565b611a49828285611985565b600060209050601f831160018114611a7c5760008415611a6a578287015190505b611a7485826119f6565b865550611adc565b601f198416611a8a86611870565b60005b82811015611ab257848901518255600182019150602085019450602081019050611a8d565b86831015611acf5784890151611acb601f8916826119d8565b8355505b6001600288020188555050505b50505050505056fea264697066735822122078e77af81e5305f2993ecd85a526a4099dec5d21014bfae6dd08d48b4fbd669664736f6c63430008140033",
  "linkReferences": {},
  "deployedLinkReferences": {}
}