{
  "_format": "hh-sol-artifact-1",
  "contractName": "SCZToken",
  "sourceName": "contracts/SCZtoken.sol",
  "abi": [
    {
      "inputs": [
        {
          "internalType": "address[]",
          "name": "addresses",
          "type": "address[]"
        },
        {
          "internalType": "uint256[]",
          "name": "params",
          "type": "uint256[]"
        }
      ],
      "stateMutability": "nonpayable",
      "type": "constructor"
    },
    {
      "inputs": [
        {
          "internalType": "address",
          "name": "spender",
          "type": "address"
        },
        {
          "internalType": "uint256",
          "name": "allowance",
          "type": "uint256"
        },
        {
          "internalType": "uint256",
          "name": "needed",
          "type": "uint256"
        }
      ],
      "name": "ERC20InsufficientAllowance",
      "type": "error"
    },
    {
      "inputs": [
        {
          "internalType": "address",
          "name": "sender",
          "type": "address"
        },
        {
          "internalType": "uint256",
          "name": "balance",
          "type": "uint256"
        },
        {
          "internalType": "uint256",
          "name": "needed",
          "type": "uint256"
        }
      ],
      "name": "ERC20InsufficientBalance",
      "type": "error"
    },
    {
      "inputs": [
        {
          "internalType": "address",
          "name": "approver",
          "type": "address"
        }
      ],
      "name": "ERC20InvalidApprover",
      "type": "error"
    },
    {
      "inputs": [
        {
          "internalType": "address",
          "name": "receiver",
          "type": "address"
        }
      ],
      "name": "ERC20InvalidReceiver",
      "type": "error"
    },
    {
      "inputs": [
        {
          "internalType": "address",
          "name": "sender",
          "type": "address"
        }
      ],
      "name": "ERC20InvalidSender",
      "type": "error"
    },
    {
      "inputs": [
        {
          "internalType": "address",
          "name": "spender",
          "type": "address"
        }
      ],
      "name": "ERC20InvalidSpender",
      "type": "error"
    },
    {
      "inputs": [
        {
          "internalType": "address",
          "name": "owner",
          "type": "address"
        }
      ],
      "name": "OwnableInvalidOwner",
      "type": "error"
    },
    {
      "inputs": [
        {
          "internalType": "address",
          "name": "account",
          "type": "address"
        }
      ],
      "name": "OwnableUnauthorizedAccount",
      "type": "error"
    },
    {
      "anonymous": false,
      "inputs": [
        {
          "indexed": true,
          "internalType": "address",
          "name": "owner",
          "type": "address"
        },
        {
          "indexed": true,
          "internalType": "address",
          "name": "spender",
          "type": "address"
        },
        {
          "indexed": false,
          "internalType": "uint256",
          "name": "value",
          "type": "uint256"
        }
      ],
      "name": "Approval",
      "type": "event"
    },
    {
      "anonymous": false,
      "inputs": [
        {
          "indexed": false,
          "internalType": "uint256",
          "name": "propertyId",
          "type": "uint256"
        },
        {
          "indexed": false,
          "internalType": "address",
          "name": "buyer",
          "type": "address"
        },
        {
          "indexed": false,
          "internalType": "uint256",
          "name": "fraction",
          "type": "uint256"
        },
        {
          "indexed": false,
          "internalType": "uint256",
          "name": "paidAmount",
          "type": "uint256"
        }
      ],
      "name": "FractionBought",
      "type": "event"
    },
    {
      "anonymous": false,
      "inputs": [
        {
          "indexed": false,
          "internalType": "uint256",
          "name": "amount",
          "type": "uint256"
        }
      ],
      "name": "IncomeDistributed",
      "type": "event"
    },
    {
      "anonymous": false,
      "inputs": [
        {
          "indexed": false,
          "internalType": "uint256",
          "name": "loanId",
          "type": "uint256"
        },
        {
          "indexed": false,
          "internalType": "address",
          "name": "borrower",
          "type": "address"
        }
      ],
      "name": "LoanLiquidated",
      "type": "event"
    },
    {
      "anonymous": false,
      "inputs": [
        {
          "indexed": false,
          "internalType": "uint256",
          "name": "loanId",
          "type": "uint256"
        },
        {
          "indexed": false,
          "internalType": "address",
          "name": "borrower",
          "type": "address"
        },
        {
          "indexed": false,
          "internalType": "uint256",
          "name": "newDueDate",
          "type": "uint256"
        },
        {
          "indexed": false,
          "internalType": "uint256",
          "name": "newInterestRate",
          "type": "uint256"
        }
      ],
      "name": "LoanRefinanced",
      "type": "event"
    },
    {
      "anonymous": false,
      "inputs": [
        {
          "indexed": false,
          "internalType": "uint256",
          "name": "loanId",
          "type": "uint256"
        },
        {
          "indexed": false,
          "internalType": "address",
          "name": "borrower",
          "type": "address"
        }
      ],
      "name": "LoanRepaid",
      "type": "event"
    },
    {
      "anonymous": false,
      "inputs": [
        {
          "indexed": false,
          "internalType": "uint256",
          "name": "loanId",
          "type": "uint256"
        },
        {
          "indexed": false,
          "internalType": "address",
          "name": "borrower",
          "type": "address"
        },
        {
          "indexed": false,
          "internalType": "uint256",
          "name": "amount",
          "type": "uint256"
        },
        {
          "indexed": false,
          "internalType": "bool",
          "name": "collateralProvided",
          "type": "bool"
        }
      ],
      "name": "LoanRequested",
      "type": "event"
    },
    {
      "anonymous": false,
      "inputs": [
        {
          "indexed": true,
          "internalType": "address",
          "name": "previousOwner",
          "type": "address"
        },
        {
          "indexed": true,
          "internalType": "address",
          "name": "newOwner",
          "type": "address"
        }
      ],
      "name": "OwnershipTransferred",
      "type": "event"
    },
    {
      "anonymous": false,
      "inputs": [
        {
          "indexed": false,
          "internalType": "uint256",
          "name": "proposalId",
          "type": "uint256"
        },
        {
          "indexed": false,
          "internalType": "string",
          "name": "description",
          "type": "string"
        }
      ],
      "name": "ProposalCreated",
      "type": "event"
    },
    {
      "anonymous": false,
      "inputs": [
        {
          "indexed": true,
          "internalType": "address",
          "name": "from",
          "type": "address"
        },
        {
          "indexed": true,
          "internalType": "address",
          "name": "to",
          "type": "address"
        },
        {
          "indexed": false,
          "internalType": "uint256",
          "name": "value",
          "type": "uint256"
        }
      ],
      "name": "Transfer",
      "type": "event"
    },
    {
      "anonymous": false,
      "inputs": [
        {
          "indexed": false,
          "internalType": "uint256",
          "name": "proposalId",
          "type": "uint256"
        },
        {
          "indexed": false,
          "internalType": "address",
          "name": "voter",
          "type": "address"
        },
        {
          "indexed": false,
          "internalType": "uint256",
          "name": "voteCount",
          "type": "uint256"
        }
      ],
      "name": "Voted",
      "type": "event"
    },
    {
      "inputs": [],
      "name": "TOTAL_SUPPLY",
      "outputs": [
        {
          "internalType": "uint256",
          "name": "",
          "type": "uint256"
        }
      ],
      "stateMutability": "view",
      "type": "function"
    },
    {
      "inputs": [
        {
          "internalType": "address",
          "name": "owner",
          "type": "address"
        },
        {
          "internalType": "address",
          "name": "spender",
          "type": "address"
        }
      ],
      "name": "allowance",
      "outputs": [
        {
          "internalType": "uint256",
          "name": "",
          "type": "uint256"
        }
      ],
      "stateMutability": "view",
      "type": "function"
    },
    {
      "inputs": [
        {
          "internalType": "address",
          "name": "spender",
          "type": "address"
        },
        {
          "internalType": "uint256",
          "name": "value",
          "type": "uint256"
        }
      ],
      "name": "approve",
      "outputs": [
        {
          "internalType": "bool",
          "name": "",
          "type": "bool"
        }
      ],
      "stateMutability": "nonpayable",
      "type": "function"
    },
    {
      "inputs": [
        {
          "internalType": "address",
          "name": "account",
          "type": "address"
        }
      ],
      "name": "balanceOf",
      "outputs": [
        {
          "internalType": "uint256",
          "name": "",
          "type": "uint256"
        }
      ],
      "stateMutability": "view",
      "type": "function"
    },
    {
      "inputs": [
        {
          "internalType": "uint256",
          "name": "propertyId",
          "type": "uint256"
        },
        {
          "internalType": "uint256",
          "name": "fraction",
          "type": "uint256"
        }
      ],
      "name": "buyFraction",
      "outputs": [],
      "stateMutability": "payable",
      "type": "function"
    },
    {
      "inputs": [
        {
          "internalType": "uint256",
          "name": "loanId",
          "type": "uint256"
        }
      ],
      "name": "calculateInterest",
      "outputs": [
        {
          "internalType": "uint256",
          "name": "",
          "type": "uint256"
        }
      ],
      "stateMutability": "view",
      "type": "function"
    },
    {
      "inputs": [
        {
          "internalType": "string",
          "name": "description",
          "type": "string"
        }
      ],
      "name": "createProposal",
      "outputs": [],
      "stateMutability": "nonpayable",
      "type": "function"
    },
    {
      "inputs": [],
      "name": "creditOracle",
      "outputs": [
        {
          "internalType": "contract ICreditOracle",
          "name": "",
          "type": "address"
        }
      ],
      "stateMutability": "view",
      "type": "function"
    },
    {
      "inputs": [],
      "name": "creditThreshold",
      "outputs": [
        {
          "internalType": "uint256",
          "name": "",
          "type": "uint256"
        }
      ],
      "stateMutability": "view",
      "type": "function"
    },
    {
      "inputs": [],
      "name": "decimals",
      "outputs": [
        {
          "internalType": "uint8",
          "name": "",
          "type": "uint8"
        }
      ],
      "stateMutability": "view",
      "type": "function"
    },
    {
      "inputs": [],
      "name": "developmentPercentage",
      "outputs": [
        {
          "internalType": "uint8",
          "name": "",
          "type": "uint8"
        }
      ],
      "stateMutability": "view",
      "type": "function"
    },
    {
      "inputs": [
        {
          "internalType": "uint256",
          "name": "incomeAmount",
          "type": "uint256"
        }
      ],
      "name": "distributeIncome",
      "outputs": [],
      "stateMutability": "nonpayable",
      "type": "function"
    },
    {
      "inputs": [],
      "name": "hardCap",
      "outputs": [
        {
          "internalType": "uint256",
          "name": "",
          "type": "uint256"
        }
      ],
      "stateMutability": "view",
      "type": "function"
    },
    {
      "inputs": [
        {
          "internalType": "address",
          "name": "",
          "type": "address"
        }
      ],
      "name": "hasVoted",
      "outputs": [
        {
          "internalType": "bool",
          "name": "",
          "type": "bool"
        }
      ],
      "stateMutability": "view",
      "type": "function"
    },
    {
      "inputs": [
        {
          "internalType": "address",
          "name": "",
          "type": "address"
        }
      ],
      "name": "isKYCVerified",
      "outputs": [
        {
          "internalType": "bool",
          "name": "",
          "type": "bool"
        }
      ],
      "stateMutability": "view",
      "type": "function"
    },
    {
      "inputs": [],
      "name": "liquidityPercentage",
      "outputs": [
        {
          "internalType": "uint8",
          "name": "",
          "type": "uint8"
        }
      ],
      "stateMutability": "view",
      "type": "function"
    },
    {
      "inputs": [],
      "name": "liquidityWallet",
      "outputs": [
        {
          "internalType": "address",
          "name": "",
          "type": "address"
        }
      ],
      "stateMutability": "view",
      "type": "function"
    },
    {
      "inputs": [
        {
          "internalType": "uint256",
          "name": "",
          "type": "uint256"
        }
      ],
      "name": "loans",
      "outputs": [
        {
          "internalType": "uint256",
          "name": "amount",
          "type": "uint256"
        },
        {
          "internalType": "uint256",
          "name": "interestRate",
          "type": "uint256"
        },
        {
          "internalType": "uint256",
          "name": "dueDate",
          "type": "uint256"
        },
        {
          "internalType": "bool",
          "name": "collateralProvided",
          "type": "bool"
        },
        {
          "internalType": "bool",
          "name": "repaid",
          "type": "bool"
        },
        {
          "internalType": "address",
          "name": "borrower",
          "type": "address"
        },
        {
          "internalType": "uint256",
          "name": "amountPaid",
          "type": "uint256"
        }
      ],
      "stateMutability": "view",
      "type": "function"
    },
    {
      "inputs": [],
      "name": "marketingPercentage",
      "outputs": [
        {
          "internalType": "uint8",
          "name": "",
          "type": "uint8"
        }
      ],
      "stateMutability": "view",
      "type": "function"
    },
    {
      "inputs": [],
      "name": "marketingWallet",
      "outputs": [
        {
          "internalType": "address",
          "name": "",
          "type": "address"
        }
      ],
      "stateMutability": "view",
      "type": "function"
    },
    {
      "inputs": [],
      "name": "maxPurchase",
      "outputs": [
        {
          "internalType": "uint256",
          "name": "",
          "type": "uint256"
        }
      ],
      "stateMutability": "view",
      "type": "function"
    },
    {
      "inputs": [],
      "name": "minPurchase",
      "outputs": [
        {
          "internalType": "uint256",
          "name": "",
          "type": "uint256"
        }
      ],
      "stateMutability": "view",
      "type": "function"
    },
    {
      "inputs": [
        {
          "internalType": "address",
          "name": "to",
          "type": "address"
        },
        {
          "internalType": "uint256",
          "name": "amount",
          "type": "uint256"
        }
      ],
      "name": "mint",
      "outputs": [],
      "stateMutability": "nonpayable",
      "type": "function"
    },
    {
      "inputs": [],
      "name": "name",
      "outputs": [
        {
          "internalType": "string",
          "name": "",
          "type": "string"
        }
      ],
      "stateMutability": "view",
      "type": "function"
    },
    {
      "inputs": [],
      "name": "nextLoanId",
      "outputs": [
        {
          "internalType": "uint256",
          "name": "",
          "type": "uint256"
        }
      ],
      "stateMutability": "view",
      "type": "function"
    },
    {
      "inputs": [],
      "name": "nextProposalId",
      "outputs": [
        {
          "internalType": "uint256",
          "name": "",
          "type": "uint256"
        }
      ],
      "stateMutability": "view",
      "type": "function"
    },
    {
      "inputs": [],
      "name": "owner",
      "outputs": [
        {
          "internalType": "address",
          "name": "",
          "type": "address"
        }
      ],
      "stateMutability": "view",
      "type": "function"
    },
    {
      "inputs": [
        {
          "internalType": "uint256",
          "name": "loanId",
          "type": "uint256"
        },
        {
          "internalType": "uint256",
          "name": "payment",
          "type": "uint256"
        }
      ],
      "name": "partialRepayLoan",
      "outputs": [],
      "stateMutability": "nonpayable",
      "type": "function"
    },
    {
      "inputs": [],
      "name": "preSaleEnd",
      "outputs": [
        {
          "internalType": "uint256",
          "name": "",
          "type": "uint256"
        }
      ],
      "stateMutability": "view",
      "type": "function"
    },
    {
      "inputs": [],
      "name": "preSaleStart",
      "outputs": [
        {
          "internalType": "uint256",
          "name": "",
          "type": "uint256"
        }
      ],
      "stateMutability": "view",
      "type": "function"
    },
    {
      "inputs": [],
      "name": "preSaleWallet",
      "outputs": [
        {
          "internalType": "address",
          "name": "",
          "type": "address"
        }
      ],
      "stateMutability": "view",
      "type": "function"
    },
    {
      "inputs": [
        {
          "internalType": "uint256",
          "name": "",
          "type": "uint256"
        },
        {
          "internalType": "address",
          "name": "",
          "type": "address"
        }
      ],
      "name": "propertyFractions",
      "outputs": [
        {
          "internalType": "uint256",
          "name": "",
          "type": "uint256"
        }
      ],
      "stateMutability": "view",
      "type": "function"
    },
    {
      "inputs": [
        {
          "internalType": "uint256",
          "name": "",
          "type": "uint256"
        }
      ],
      "name": "propertyValues",
      "outputs": [
        {
          "internalType": "uint256",
          "name": "",
          "type": "uint256"
        }
      ],
      "stateMutability": "view",
      "type": "function"
    },
    {
      "inputs": [
        {
          "internalType": "uint256",
          "name": "",
          "type": "uint256"
        }
      ],
      "name": "proposals",
      "outputs": [
        {
          "internalType": "uint256",
          "name": "id",
          "type": "uint256"
        },
        {
          "internalType": "string",
          "name": "description",
          "type": "string"
        },
        {
          "internalType": "uint256",
          "name": "voteCount",
          "type": "uint256"
        },
        {
          "internalType": "bool",
          "name": "executed",
          "type": "bool"
        }
      ],
      "stateMutability": "view",
      "type": "function"
    },
    {
      "inputs": [
        {
          "internalType": "uint256",
          "name": "loanId",
          "type": "uint256"
        }
      ],
      "name": "refinanceLoan",
      "outputs": [],
      "stateMutability": "nonpayable",
      "type": "function"
    },
    {
      "inputs": [],
      "name": "renounceOwnership",
      "outputs": [],
      "stateMutability": "nonpayable",
      "type": "function"
    },
    {
      "inputs": [
        {
          "internalType": "uint256",
          "name": "loanId",
          "type": "uint256"
        }
      ],
      "name": "repayLoan",
      "outputs": [],
      "stateMutability": "nonpayable",
      "type": "function"
    },
    {
      "inputs": [
        {
          "internalType": "uint256",
          "name": "propertyId",
          "type": "uint256"
        },
        {
          "internalType": "uint256",
          "name": "creditAmount",
          "type": "uint256"
        }
      ],
      "name": "requestCreditWithRealEstate",
      "outputs": [
        {
          "internalType": "uint256",
          "name": "",
          "type": "uint256"
        }
      ],
      "stateMutability": "nonpayable",
      "type": "function"
    },
    {
      "inputs": [
        {
          "internalType": "uint256",
          "name": "creditAmount",
          "type": "uint256"
        }
      ],
      "name": "requestCreditWithoutCollateral",
      "outputs": [
        {
          "internalType": "uint256",
          "name": "",
          "type": "uint256"
        }
      ],
      "stateMutability": "nonpayable",
      "type": "function"
    },
    {
      "inputs": [
        {
          "internalType": "uint256",
          "name": "amount",
          "type": "uint256"
        },
        {
          "internalType": "bool",
          "name": "withCollateral",
          "type": "bool"
        }
      ],
      "name": "requestLoan",
      "outputs": [
        {
          "internalType": "uint256",
          "name": "loanId",
          "type": "uint256"
        }
      ],
      "stateMutability": "nonpayable",
      "type": "function"
    },
    {
      "inputs": [],
      "name": "reservePercentage",
      "outputs": [
        {
          "internalType": "uint8",
          "name": "",
          "type": "uint8"
        }
      ],
      "stateMutability": "view",
      "type": "function"
    },
    {
      "inputs": [],
      "name": "reserveWallet",
      "outputs": [
        {
          "internalType": "address",
          "name": "",
          "type": "address"
        }
      ],
      "stateMutability": "view",
      "type": "function"
    },
    {
      "inputs": [
        {
          "internalType": "address",
          "name": "user",
          "type": "address"
        }
      ],
      "name": "revokeKYC",
      "outputs": [],
      "stateMutability": "nonpayable",
      "type": "function"
    },
    {
      "inputs": [
        {
          "internalType": "address",
          "name": "_oracle",
          "type": "address"
        },
        {
          "internalType": "uint256",
          "name": "_threshold",
          "type": "uint256"
        }
      ],
      "name": "setCreditOracle",
      "outputs": [],
      "stateMutability": "nonpayable",
      "type": "function"
    },
    {
      "inputs": [],
      "name": "softCap",
      "outputs": [
        {
          "internalType": "uint256",
          "name": "",
          "type": "uint256"
        }
      ],
      "stateMutability": "view",
      "type": "function"
    },
    {
      "inputs": [],
      "name": "symbol",
      "outputs": [
        {
          "internalType": "string",
          "name": "",
          "type": "string"
        }
      ],
      "stateMutability": "view",
      "type": "function"
    },
    {
      "inputs": [],
      "name": "teamPercentage",
      "outputs": [
        {
          "internalType": "uint8",
          "name": "",
          "type": "uint8"
        }
      ],
      "stateMutability": "view",
      "type": "function"
    },
    {
      "inputs": [],
      "name": "teamWallet",
      "outputs": [
        {
          "internalType": "address",
          "name": "",
          "type": "address"
        }
      ],
      "stateMutability": "view",
      "type": "function"
    },
    {
      "inputs": [],
      "name": "tokenPrice",
      "outputs": [
        {
          "internalType": "uint256",
          "name": "",
          "type": "uint256"
        }
      ],
      "stateMutability": "view",
      "type": "function"
    },
    {
      "inputs": [],
      "name": "totalSupply",
      "outputs": [
        {
          "internalType": "uint256",
          "name": "",
          "type": "uint256"
        }
      ],
      "stateMutability": "view",
      "type": "function"
    },
    {
      "inputs": [
        {
          "internalType": "address",
          "name": "to",
          "type": "address"
        },
        {
          "internalType": "uint256",
          "name": "value",
          "type": "uint256"
        }
      ],
      "name": "transfer",
      "outputs": [
        {
          "internalType": "bool",
          "name": "",
          "type": "bool"
        }
      ],
      "stateMutability": "nonpayable",
      "type": "function"
    },
    {
      "inputs": [
        {
          "internalType": "address",
          "name": "from",
          "type": "address"
        },
        {
          "internalType": "address",
          "name": "to",
          "type": "address"
        },
        {
          "internalType": "uint256",
          "name": "value",
          "type": "uint256"
        }
      ],
      "name": "transferFrom",
      "outputs": [
        {
          "internalType": "bool",
          "name": "",
          "type": "bool"
        }
      ],
      "stateMutability": "nonpayable",
      "type": "function"
    },
    {
      "inputs": [
        {
          "internalType": "address",
          "name": "newOwner",
          "type": "address"
        }
      ],
      "name": "transferOwnership",
      "outputs": [],
      "stateMutability": "nonpayable",
      "type": "function"
    },
    {
      "inputs": [
        {
          "internalType": "uint256",
          "name": "propertyId",
          "type": "uint256"
        },
        {
          "internalType": "uint256",
          "name": "newValue",
          "type": "uint256"
        }
      ],
      "name": "updatePropertyValue",
      "outputs": [],
      "stateMutability": "nonpayable",
      "type": "function"
    },
    {
      "inputs": [
        {
          "internalType": "address",
          "name": "user",
          "type": "address"
        }
      ],
      "name": "verifyKYC",
      "outputs": [],
      "stateMutability": "nonpayable",
      "type": "function"
    },
    {
      "inputs": [
        {
          "internalType": "uint256",
          "name": "proposalId",
          "type": "uint256"
        }
      ],
      "name": "voteProposal",
      "outputs": [],
      "stateMutability": "nonpayable",
      "type": "function"
    }
  ],
  "bytecode": "0x60806040526032601260006101000a81548160ff021916908360ff1602179055506014601260016101000a81548160ff021916908360ff160217905550600f601260026101000a81548160ff021916908360ff160217905550600a601260036101000a81548160ff021916908360ff1602179055506005601260046101000a81548160ff021916908360ff1602179055503480156200009d57600080fd5b506040516200535c3803806200535c8339818101604052810190620000c3919062000d9a565b336040518060400160405280600981526020017f53435a20546f6b656e00000000000000000000000000000000000000000000008152506040518060400160405280600381526020017f53435a0000000000000000000000000000000000000000000000000000000000815250816003908162000141919062001060565b50806004908162000153919062001060565b505050600073ffffffffffffffffffffffffffffffffffffffff168173ffffffffffffffffffffffffffffffffffffffff1603620001cb5760006040517f1e4fbdf7000000000000000000000000000000000000000000000000000000008152600401620001c2919062001158565b60405180910390fd5b620001dc816200071860201b60201c565b50600582511462000224576040517f08c379a00000000000000000000000000000000000000000000000000000000081526004016200021b90620011d6565b60405180910390fd5b60078151146200026b576040517f08c379a0000000000000000000000000000000000000000000000000000000008152600401620002629062001248565b60405180910390fd5b816000815181106200028257620002816200126a565b5b6020026020010151600660006101000a81548173ffffffffffffffffffffffffffffffffffffffff021916908373ffffffffffffffffffffffffffffffffffffffff16021790555081600181518110620002e157620002e06200126a565b5b6020026020010151600760006101000a81548173ffffffffffffffffffffffffffffffffffffffff021916908373ffffffffffffffffffffffffffffffffffffffff1602179055508160028151811062000340576200033f6200126a565b5b6020026020010151600860006101000a81548173ffffffffffffffffffffffffffffffffffffffff021916908373ffffffffffffffffffffffffffffffffffffffff160217905550816003815181106200039f576200039e6200126a565b5b6020026020010151600960006101000a81548173ffffffffffffffffffffffffffffffffffffffff021916908373ffffffffffffffffffffffffffffffffffffffff16021790555081600481518110620003fe57620003fd6200126a565b5b6020026020010151600a60006101000a81548173ffffffffffffffffffffffffffffffffffffffff021916908373ffffffffffffffffffffffffffffffffffffffff160217905550806000815181106200045d576200045c6200126a565b5b6020026020010151600b81905550806001815181106200048257620004816200126a565b5b6020026020010151600c8190555080600281518110620004a757620004a66200126a565b5b6020026020010151600d8190555080600381518110620004cc57620004cb6200126a565b5b6020026020010151600e8190555080600481518110620004f157620004f06200126a565b5b6020026020010151600f81905550806005815181106200051657620005156200126a565b5b6020026020010151601081905550806006815181106200053b576200053a6200126a565b5b6020026020010151601181905550620005a4600660009054906101000a900473ffffffffffffffffffffffffffffffffffffffff16606460326a52b7d2dcc80cd2e40000006200058c9190620012c8565b62000598919062001342565b620007de60201b60201c565b620005ff600760009054906101000a900473ffffffffffffffffffffffffffffffffffffffff16606460146a52b7d2dcc80cd2e4000000620005e79190620012c8565b620005f3919062001342565b620007de60201b60201c565b6200065a600860009054906101000a900473ffffffffffffffffffffffffffffffffffffffff166064600f6a52b7d2dcc80cd2e4000000620006429190620012c8565b6200064e919062001342565b620007de60201b60201c565b620006b5600960009054906101000a900473ffffffffffffffffffffffffffffffffffffffff166064600a6a52b7d2dcc80cd2e40000006200069d9190620012c8565b620006a9919062001342565b620007de60201b60201c565b62000710600a60009054906101000a900473ffffffffffffffffffffffffffffffffffffffff16606460056a52b7d2dcc80cd2e4000000620006f89190620012c8565b62000704919062001342565b620007de60201b60201c565b505062001420565b6000600560009054906101000a900473ffffffffffffffffffffffffffffffffffffffff16905081600560006101000a81548173ffffffffffffffffffffffffffffffffffffffff021916908373ffffffffffffffffffffffffffffffffffffffff1602179055508173ffffffffffffffffffffffffffffffffffffffff168173ffffffffffffffffffffffffffffffffffffffff167f8be0079c531659141344cd1fd0a4f28419497f9722a3daafe3b4186f6b6457e060405160405180910390a35050565b600073ffffffffffffffffffffffffffffffffffffffff168273ffffffffffffffffffffffffffffffffffffffff1603620008535760006040517fec442f050000000000000000000000000000000000000000000000000000000081526004016200084a919062001158565b60405180910390fd5b62000867600083836200086b60201b60201c565b5050565b600073ffffffffffffffffffffffffffffffffffffffff168373ffffffffffffffffffffffffffffffffffffffff1603620008c1578060026000828254620008b491906200137a565b9250508190555062000997565b60008060008573ffffffffffffffffffffffffffffffffffffffff1673ffffffffffffffffffffffffffffffffffffffff1681526020019081526020016000205490508181101562000950578381836040517fe450d38c0000000000000000000000000000000000000000000000000000000081526004016200094793929190620013c6565b60405180910390fd5b8181036000808673ffffffffffffffffffffffffffffffffffffffff1673ffffffffffffffffffffffffffffffffffffffff16815260200190815260200160002081905550505b600073ffffffffffffffffffffffffffffffffffffffff168273ffffffffffffffffffffffffffffffffffffffff1603620009e2578060026000828254039250508190555062000a2f565b806000808473ffffffffffffffffffffffffffffffffffffffff1673ffffffffffffffffffffffffffffffffffffffff168152602001908152602001600020600082825401925050819055505b8173ffffffffffffffffffffffffffffffffffffffff168373ffffffffffffffffffffffffffffffffffffffff167fddf252ad1be2c89b69c2b068fc378daa952ba7f163c4a11628f55a4df523b3ef8360405162000a8e919062001403565b60405180910390a3505050565b6000604051905090565b600080fd5b600080fd5b600080fd5b6000601f19601f8301169050919050565b7f4e487b7100000000000000000000000000000000000000000000000000000000600052604160045260246000fd5b62000aff8262000ab4565b810181811067ffffffffffffffff8211171562000b215762000b2062000ac5565b5b80604052505050565b600062000b3662000a9b565b905062000b44828262000af4565b919050565b600067ffffffffffffffff82111562000b675762000b6662000ac5565b5b602082029050602081019050919050565b600080fd5b600073ffffffffffffffffffffffffffffffffffffffff82169050919050565b600062000baa8262000b7d565b9050919050565b62000bbc8162000b9d565b811462000bc857600080fd5b50565b60008151905062000bdc8162000bb1565b92915050565b600062000bf962000bf38462000b49565b62000b2a565b9050808382526020820190506020840283018581111562000c1f5762000c1e62000b78565b5b835b8181101562000c4c578062000c37888262000bcb565b84526020840193505060208101905062000c21565b5050509392505050565b600082601f83011262000c6e5762000c6d62000aaf565b5b815162000c8084826020860162000be2565b91505092915050565b600067ffffffffffffffff82111562000ca75762000ca662000ac5565b5b602082029050602081019050919050565b6000819050919050565b62000ccd8162000cb8565b811462000cd957600080fd5b50565b60008151905062000ced8162000cc2565b92915050565b600062000d0a62000d048462000c89565b62000b2a565b9050808382526020820190506020840283018581111562000d305762000d2f62000b78565b5b835b8181101562000d5d578062000d48888262000cdc565b84526020840193505060208101905062000d32565b5050509392505050565b600082601f83011262000d7f5762000d7e62000aaf565b5b815162000d9184826020860162000cf3565b91505092915050565b6000806040838503121562000db45762000db362000aa5565b5b600083015167ffffffffffffffff81111562000dd55762000dd462000aaa565b5b62000de38582860162000c56565b925050602083015167ffffffffffffffff81111562000e075762000e0662000aaa565b5b62000e158582860162000d67565b9150509250929050565b600081519050919050565b7f4e487b7100000000000000000000000000000000000000000000000000000000600052602260045260246000fd5b6000600282049050600182168062000e7257607f821691505b60208210810362000e885762000e8762000e2a565b5b50919050565b60008190508160005260206000209050919050565b60006020601f8301049050919050565b600082821b905092915050565b60006008830262000ef27fffffffffffffffffffffffffffffffffffffffffffffffffffffffffffffffff8262000eb3565b62000efe868362000eb3565b95508019841693508086168417925050509392505050565b6000819050919050565b600062000f4162000f3b62000f358462000cb8565b62000f16565b62000cb8565b9050919050565b6000819050919050565b62000f5d8362000f20565b62000f7562000f6c8262000f48565b84845462000ec0565b825550505050565b600090565b62000f8c62000f7d565b62000f9981848462000f52565b505050565b5b8181101562000fc15762000fb560008262000f82565b60018101905062000f9f565b5050565b601f821115620010105762000fda8162000e8e565b62000fe58462000ea3565b8101602085101562000ff5578190505b6200100d620010048562000ea3565b83018262000f9e565b50505b505050565b600082821c905092915050565b6000620010356000198460080262001015565b1980831691505092915050565b600062001050838362001022565b9150826002028217905092915050565b6200106b8262000e1f565b67ffffffffffffffff81111562001087576200108662000ac5565b5b62001093825462000e59565b620010a082828562000fc5565b600060209050601f831160018114620010d85760008415620010c3578287015190505b620010cf858262001042565b8655506200113f565b601f198416620010e88662000e8e565b60005b828110156200111257848901518255600182019150602085019450602081019050620010eb565b868310156200113257848901516200112e601f89168262001022565b8355505b6001600288020188555050505b505050505050565b620011528162000b9d565b82525050565b60006020820190506200116f600083018462001147565b92915050565b600082825260208201905092915050565b7f53652072657175696572656e203520646972656363696f6e6573000000000000600082015250565b6000620011be601a8362001175565b9150620011cb8262001186565b602082019050919050565b60006020820190508181036000830152620011f181620011af565b9050919050565b7f53652072657175696572656e203720706172616d6574726f7300000000000000600082015250565b60006200123060198362001175565b91506200123d82620011f8565b602082019050919050565b60006020820190508181036000830152620012638162001221565b9050919050565b7f4e487b7100000000000000000000000000000000000000000000000000000000600052603260045260246000fd5b7f4e487b7100000000000000000000000000000000000000000000000000000000600052601160045260246000fd5b6000620012d58262000cb8565b9150620012e28362000cb8565b9250828202620012f28162000cb8565b915082820484148315176200130c576200130b62001299565b5b5092915050565b7f4e487b7100000000000000000000000000000000000000000000000000000000600052601260045260246000fd5b60006200134f8262000cb8565b91506200135c8362000cb8565b9250826200136f576200136e62001313565b5b828204905092915050565b6000620013878262000cb8565b9150620013948362000cb8565b9250828201905080821115620013af57620013ae62001299565b5b92915050565b620013c08162000cb8565b82525050565b6000606082019050620013dd600083018662001147565b620013ec6020830185620013b5565b620013fb6040830184620013b5565b949350505050565b60006020820190506200141a6000830184620013b5565b92915050565b613f2c80620014306000396000f3fe60806040526004361061036a5760003560e01c8063807896d5116101c6578063d40b0214116100f7578063e36922a511610095578063ef06fb731161006f578063ef06fb7314610d0b578063f2fde38b14610d34578063f700c82914610d5d578063fb86a40414610d885761036a565b8063e36922a514610c7a578063e99e03df14610ca5578063ecaec10b14610ce25761036a565b8063d72b11bd116100d1578063d72b11bd14610ba4578063dd62ed3e14610bcf578063de20308a14610c0c578063e1ec3c6814610c375761036a565b8063d40b021414610b32578063d469801614610b4e578063d6a9e9d114610b795761036a565b80639b7c4b4b11610164578063aa5480cf1161013e578063aa5480cf14610a76578063ab7b1c8914610aa1578063b1c52bb814610aca578063badee9f914610af55761036a565b80639b7c4b4b146109d3578063a57475e0146109fc578063a9059cbb14610a395761036a565b8063902d55a5116101a0578063902d55a514610927578063906a26e01461095257806395d89b411461097d578063977b055b146109a85761036a565b8063807896d5146108a857806387c51459146108d15780638da5cb5b146108fc5761036a565b806333b5b62e116102a05780636bc64e0f1161023e578063715018a611610218578063715018a61461081257806375f0a874146108295780637ad88806146108545780637ff9b5961461087d5761036a565b80636bc64e0f1461076d5780636e3190771461079857806370a08231146107d55761036a565b806340c10f191161027a57806340c10f19146106b357806349c2a1a6146106dc57806354b7636e1461070557806359927044146107425761036a565b806333b5b62e1461063657806338d160111461066157806339ba645b1461068a5761036a565b80631092974f1161030d5780631fc75e41116102e75780631fc75e411461057857806323b872dd146105a35780632ab09d14146105e0578063313ce5671461060b5761036a565b80631092974f146104d357806318160ddd146105105780631f906a1d1461053b5761036a565b806306fdde031161034957806306fdde0314610403578063095ea7b31461042e57806309eef43e1461046b5780630d5624b3146104a85761036a565b80624a76681461036f578063013cf08b14610398578063048b87ba146103d8575b600080fd5b34801561037b57600080fd5b5061039660048036038101906103919190612df8565b610db3565b005b3480156103a457600080fd5b506103bf60048036038101906103ba9190612e38565b610e07565b6040516103cf9493929190612f1f565b60405180910390f35b3480156103e457600080fd5b506103ed610ecc565b6040516103fa9190612f87565b60405180910390f35b34801561040f57600080fd5b50610418610edf565b6040516104259190612fa2565b60405180910390f35b34801561043a57600080fd5b5061045560048036038101906104509190612df8565b610f71565b6040516104629190612fc4565b60405180910390f35b34801561047757600080fd5b50610492600480360381019061048d9190612fdf565b610f94565b60405161049f9190612fc4565b60405180910390f35b3480156104b457600080fd5b506104bd610fb4565b6040516104ca919061300c565b60405180910390f35b3480156104df57600080fd5b506104fa60048036038101906104f59190613027565b610fba565b604051610507919061300c565b60405180910390f35b34801561051c57600080fd5b50610525610fdf565b604051610532919061300c565b60405180910390f35b34801561054757600080fd5b50610562600480360381019061055d9190612e38565b610fe9565b60405161056f919061300c565b60405180910390f35b34801561058457600080fd5b5061058d610ffd565b60405161059a9190613076565b60405180910390f35b3480156105af57600080fd5b506105ca60048036038101906105c59190613091565b611023565b6040516105d79190612fc4565b60405180910390f35b3480156105ec57600080fd5b506105f5611052565b604051610602919061300c565b60405180910390f35b34801561061757600080fd5b50610620611058565b60405161062d9190612f87565b60405180910390f35b34801561064257600080fd5b5061064b611061565b604051610658919061300c565b60405180910390f35b34801561066d57600080fd5b5061068860048036038101906106839190612fdf565b611067565b005b34801561069657600080fd5b506106b160048036038101906106ac9190612fdf565b6110ca565b005b3480156106bf57600080fd5b506106da60048036038101906106d59190612df8565b61112d565b005b3480156106e857600080fd5b5061070360048036038101906106fe9190613149565b611143565b005b34801561071157600080fd5b5061072c60048036038101906107279190612fdf565b611271565b6040516107399190612fc4565b60405180910390f35b34801561074e57600080fd5b50610757611291565b6040516107649190613076565b60405180910390f35b34801561077957600080fd5b506107826112b7565b60405161078f919061300c565b60405180910390f35b3480156107a457600080fd5b506107bf60048036038101906107ba9190612e38565b6112bd565b6040516107cc919061300c565b60405180910390f35b3480156107e157600080fd5b506107fc60048036038101906107f79190612fdf565b6112d5565b604051610809919061300c565b60405180910390f35b34801561081e57600080fd5b5061082761131d565b005b34801561083557600080fd5b5061083e611331565b60405161084b9190613076565b60405180910390f35b34801561086057600080fd5b5061087b60048036038101906108769190613196565b611357565b005b34801561088957600080fd5b506108926114d8565b60405161089f919061300c565b60405180910390f35b3480156108b457600080fd5b506108cf60048036038101906108ca9190612e38565b6114de565b005b3480156108dd57600080fd5b506108e6611639565b6040516108f3919061300c565b60405180910390f35b34801561090857600080fd5b5061091161163f565b60405161091e9190613076565b60405180910390f35b34801561093357600080fd5b5061093c611669565b604051610949919061300c565b60405180910390f35b34801561095e57600080fd5b50610967611678565b604051610974919061300c565b60405180910390f35b34801561098957600080fd5b5061099261167e565b60405161099f9190612fa2565b60405180910390f35b3480156109b457600080fd5b506109bd611710565b6040516109ca919061300c565b60405180910390f35b3480156109df57600080fd5b506109fa60048036038101906109f59190613196565b611716565b005b348015610a0857600080fd5b50610a236004803603810190610a1e9190612e38565b61173a565b604051610a30919061300c565b60405180910390f35b348015610a4557600080fd5b50610a606004803603810190610a5b9190612df8565b611839565b604051610a6d9190612fc4565b60405180910390f35b348015610a8257600080fd5b50610a8b61185c565b604051610a98919061300c565b60405180910390f35b348015610aad57600080fd5b50610ac86004803603810190610ac39190612e38565b611862565b005b348015610ad657600080fd5b50610adf6119c4565b604051610aec9190612f87565b60405180910390f35b348015610b0157600080fd5b50610b1c6004803603810190610b179190613202565b6119d7565b604051610b29919061300c565b60405180910390f35b610b4c6004803603810190610b479190613196565b611c14565b005b348015610b5a57600080fd5b50610b63611dc8565b604051610b709190613076565b60405180910390f35b348015610b8557600080fd5b50610b8e611dee565b604051610b9b9190612f87565b60405180910390f35b348015610bb057600080fd5b50610bb9611e01565b604051610bc69190613076565b60405180910390f35b348015610bdb57600080fd5b50610bf66004803603810190610bf19190613242565b611e27565b604051610c03919061300c565b60405180910390f35b348015610c1857600080fd5b50610c21611eae565b604051610c2e9190612f87565b60405180910390f35b348015610c4357600080fd5b50610c5e6004803603810190610c599190612e38565b611ec1565b604051610c719796959493929190613282565b60405180910390f35b348015610c8657600080fd5b50610c8f611f3d565b604051610c9c9190613350565b60405180910390f35b348015610cb157600080fd5b50610ccc6004803603810190610cc79190613196565b611f63565b604051610cd9919061300c565b60405180910390f35b348015610cee57600080fd5b50610d096004803603810190610d049190612e38565b61215e565b005b348015610d1757600080fd5b50610d326004803603810190610d2d9190612e38565b6123b1565b005b348015610d4057600080fd5b50610d5b6004803603810190610d569190612fdf565b6123f3565b005b348015610d6957600080fd5b50610d72612479565b604051610d7f9190612f87565b60405180910390f35b348015610d9457600080fd5b50610d9d61248c565b604051610daa919061300c565b60405180910390f35b610dbb612492565b81601b60006101000a81548173ffffffffffffffffffffffffffffffffffffffff021916908373ffffffffffffffffffffffffffffffffffffffff16021790555080601c819055505050565b6017602052806000526040600020600091509050806000015490806001018054610e309061339a565b80601f0160208091040260200160405190810160405280929190818152602001828054610e5c9061339a565b8015610ea95780601f10610e7e57610100808354040283529160200191610ea9565b820191906000526020600020905b815481529060010190602001808311610e8c57829003601f168201915b5050505050908060020154908060030160009054906101000a900460ff16905084565b601260009054906101000a900460ff1681565b606060038054610eee9061339a565b80601f0160208091040260200160405190810160405280929190818152602001828054610f1a9061339a565b8015610f675780601f10610f3c57610100808354040283529160200191610f67565b820191906000526020600020905b815481529060010190602001808311610f4a57829003601f168201915b5050505050905090565b600080610f7c612519565b9050610f89818585612521565b600191505092915050565b60196020528060005260406000206000915054906101000a900460ff1681565b600e5481565b6016602052816000526040600020602052806000526040600020600091509150505481565b6000600254905090565b6000610ff68260006119d7565b9050919050565b600660009054906101000a900473ffffffffffffffffffffffffffffffffffffffff1681565b60008061102e612519565b905061103b858285612533565b6110468585856125c8565b60019150509392505050565b60185481565b60006012905090565b60105481565b61106f612492565b6001601a60008373ffffffffffffffffffffffffffffffffffffffff1673ffffffffffffffffffffffffffffffffffffffff16815260200190815260200160002060006101000a81548160ff02191690831515021790555050565b6110d2612492565b6000601a60008373ffffffffffffffffffffffffffffffffffffffff1673ffffffffffffffffffffffffffffffffffffffff16815260200190815260200160002060006101000a81548160ff02191690831515021790555050565b611135612492565b61113f82826126bc565b5050565b61114b612492565b6040518060800160405280601854815260200183838080601f016020809104026020016040519081016040528093929190818152602001838380828437600081840152601f19601f82011690508083019250505050505050815260200160008152602001600015158152506017600060185481526020019081526020016000206000820151816000015560208201518160010190816111ea919061359c565b506040820151816002015560608201518160030160006101000a81548160ff0219169083151502179055509050507f9c770c289ab5bf7e57cb1d23c8ceae993aea46eb64847072fd3d78ca60d3e432601854838360405161124d939291906136aa565b60405180910390a1601860008154809291906112689061370b565b91905055505050565b601a6020528060005260406000206000915054906101000a900460ff1681565b600860009054906101000a900473ffffffffffffffffffffffffffffffffffffffff1681565b600f5481565b60156020528060005260406000206000915090505481565b60008060008373ffffffffffffffffffffffffffffffffffffffff1673ffffffffffffffffffffffffffffffffffffffff168152602001908152602001600020549050919050565b611325612492565b61132f600061273e565b565b600960009054906101000a900473ffffffffffffffffffffffffffffffffffffffff1681565b60006013600084815260200190815260200160002090503373ffffffffffffffffffffffffffffffffffffffff168160030160029054906101000a900473ffffffffffffffffffffffffffffffffffffffff1673ffffffffffffffffffffffffffffffffffffffff1614611400576040517f08c379a00000000000000000000000000000000000000000000000000000000081526004016113f79061379f565b60405180910390fd5b8060030160019054906101000a900460ff1615611452576040517f08c379a00000000000000000000000000000000000000000000000000000000081526004016114499061380b565b60405180910390fd5b81816004016000828254611466919061382b565b9250508190555080600001548160040154106114d35760018160030160016101000a81548160ff0219169083151502179055507fe69d7686a8bc68278b8c5419579f91716b3ef2ac2fac0d8cf80b8011f8f458a483336040516114ca92919061385f565b60405180910390a15b505050565b600d5481565b601960003373ffffffffffffffffffffffffffffffffffffffff1673ffffffffffffffffffffffffffffffffffffffff16815260200190815260200160002060009054906101000a900460ff161561156b576040517f08c379a0000000000000000000000000000000000000000000000000000000008152600401611562906138d4565b60405180910390fd5b60006017600083815260200190815260200160002090506001816002016000828254611597919061382b565b925050819055506001601960003373ffffffffffffffffffffffffffffffffffffffff1673ffffffffffffffffffffffffffffffffffffffff16815260200190815260200160002060006101000a81548160ff0219169083151502179055507f1abe610cf2bf87e57dcc1181fcf5ac0934e843d8344ab9eed6e86c799f62585e8233836002015460405161162d939291906138f4565b60405180910390a15050565b60145481565b6000600560009054906101000a900473ffffffffffffffffffffffffffffffffffffffff16905090565b6a52b7d2dcc80cd2e400000081565b600b5481565b60606004805461168d9061339a565b80601f01602080910402602001604051908101604052809291908181526020018280546116b99061339a565b80156117065780601f106116db57610100808354040283529160200191611706565b820191906000526020600020905b8154815290600101906020018083116116e957829003601f168201915b5050505050905090565b60115481565b61171e612492565b8060156000848152602001908152602001600020819055505050565b600080601360008481526020019081526020016000206040518060e00160405290816000820154815260200160018201548152602001600282015481526020016003820160009054906101000a900460ff161515151581526020016003820160019054906101000a900460ff161515151581526020016003820160029054906101000a900473ffffffffffffffffffffffffffffffffffffffff1673ffffffffffffffffffffffffffffffffffffffff1673ffffffffffffffffffffffffffffffffffffffff1681526020016004820154815250509050606481602001518260000151611827919061392b565b611831919061399c565b915050919050565b600080611844612519565b90506118518185856125c8565b600191505092915050565b601c5481565b60006013600083815260200190815260200160002090503373ffffffffffffffffffffffffffffffffffffffff168160030160029054906101000a900473ffffffffffffffffffffffffffffffffffffffff1673ffffffffffffffffffffffffffffffffffffffff161461190b576040517f08c379a00000000000000000000000000000000000000000000000000000000081526004016119029061379f565b60405180910390fd5b8060030160019054906101000a900460ff161561195d576040517f08c379a00000000000000000000000000000000000000000000000000000000081526004016119549061380b565b60405180910390fd5b8060000154816004018190555060018160030160016101000a81548160ff0219169083151502179055507fe69d7686a8bc68278b8c5419579f91716b3ef2ac2fac0d8cf80b8011f8f458a482336040516119b892919061385f565b60405180910390a15050565b601260019054906101000a900460ff1681565b6000601a60003373ffffffffffffffffffffffffffffffffffffffff1673ffffffffffffffffffffffffffffffffffffffff16815260200190815260200160002060009054906101000a900460ff16611a65576040517f08c379a0000000000000000000000000000000000000000000000000000000008152600401611a5c90613a19565b60405180910390fd5b600082611a7357600a611a76565b60055b60ff169050600062278d0042611a8c919061382b565b90506040518060e0016040528086815260200183815260200182815260200185151581526020016000151581526020013373ffffffffffffffffffffffffffffffffffffffff168152602001600081525060136000601454815260200190815260200160002060008201518160000155602082015181600101556040820151816002015560608201518160030160006101000a81548160ff02191690831515021790555060808201518160030160016101000a81548160ff02191690831515021790555060a08201518160030160026101000a81548173ffffffffffffffffffffffffffffffffffffffff021916908373ffffffffffffffffffffffffffffffffffffffff16021790555060c082015181600401559050507f96aeb391f92bc675235aa1a31098e13d6f695e5f5c3c1eb457eb41726e5d49ed601454338787604051611bdb9493929190613a39565b60405180910390a160146000815480929190611bf69061370b565b91905055506001601454611c0a9190613a7e565b9250505092915050565b600081118015611c25575060648111155b611c64576040517f08c379a0000000000000000000000000000000000000000000000000000000008152600401611c5b90613afe565b60405180910390fd5b60006015600084815260200190815260200160002054905060008111611cbf576040517f08c379a0000000000000000000000000000000000000000000000000000000008152600401611cb690613b6a565b60405180910390fd5b600060648383611ccf919061392b565b611cd9919061399c565b905080341015611d1e576040517f08c379a0000000000000000000000000000000000000000000000000000000008152600401611d1590613bd6565b60405180910390fd5b826016600086815260200190815260200160002060003373ffffffffffffffffffffffffffffffffffffffff1673ffffffffffffffffffffffffffffffffffffffff1681526020019081526020016000206000828254611d7e919061382b565b925050819055507f80c4f3b1904f05c8c1907de32bb02dd69685a584a2e41a75414ace634b4292f784338534604051611dba9493929190613bf6565b60405180910390a150505050565b600760009054906101000a900473ffffffffffffffffffffffffffffffffffffffff1681565b601260039054906101000a900460ff1681565b600a60009054906101000a900473ffffffffffffffffffffffffffffffffffffffff1681565b6000600160008473ffffffffffffffffffffffffffffffffffffffff1673ffffffffffffffffffffffffffffffffffffffff16815260200190815260200160002060008373ffffffffffffffffffffffffffffffffffffffff1673ffffffffffffffffffffffffffffffffffffffff16815260200190815260200160002054905092915050565b601260029054906101000a900460ff1681565b60136020528060005260406000206000915090508060000154908060010154908060020154908060030160009054906101000a900460ff16908060030160019054906101000a900460ff16908060030160029054906101000a900473ffffffffffffffffffffffffffffffffffffffff16908060040154905087565b601b60009054906101000a900473ffffffffffffffffffffffffffffffffffffffff1681565b6000806015600085815260200190815260200160002054905060008111611fbf576040517f08c379a0000000000000000000000000000000000000000000000000000000008152600401611fb690613b6a565b60405180910390fd5b60006016600086815260200190815260200160002060003373ffffffffffffffffffffffffffffffffffffffff1673ffffffffffffffffffffffffffffffffffffffff1681526020019081526020016000205411612052576040517f08c379a000000000000000000000000000000000000000000000000000000000815260040161204990613c87565b60405180910390fd5b61205b33612804565b61209a576040517f08c379a000000000000000000000000000000000000000000000000000000000815260040161209190613cf3565b60405180910390fd5b600060646016600087815260200190815260200160002060003373ffffffffffffffffffffffffffffffffffffffff1673ffffffffffffffffffffffffffffffffffffffff16815260200190815260200160002054836120fa919061392b565b612104919061399c565b905080841115612149576040517f08c379a000000000000000000000000000000000000000000000000000000000815260040161214090613d5f565b60405180910390fd5b6121548460016119d7565b9250505092915050565b60006013600083815260200190815260200160002090503373ffffffffffffffffffffffffffffffffffffffff168160030160029054906101000a900473ffffffffffffffffffffffffffffffffffffffff1673ffffffffffffffffffffffffffffffffffffffff1614612207576040517f08c379a00000000000000000000000000000000000000000000000000000000081526004016121fe9061379f565b60405180910390fd5b8060030160019054906101000a900460ff1615612259576040517f08c379a00000000000000000000000000000000000000000000000000000000081526004016122509061380b565b60405180910390fd5b6064604b826000015461226c919061392b565b612276919061399c565b816004015410156122bc576040517f08c379a00000000000000000000000000000000000000000000000000000000081526004016122b390613df1565b60405180910390fd5b8060020154421115612303576040517f08c379a00000000000000000000000000000000000000000000000000000000081526004016122fa90613e5d565b60405180910390fd5b62278d0042612312919061382b565b816002018190555060028160010154111561234457600281600101600082825461233c9190613a7e565b925050819055505b7f6bc017a23754c2d8fd4c94b1f91c13f19c7873d8a02034b49e20a51f763eb6e0828260030160029054906101000a900473ffffffffffffffffffffffffffffffffffffffff16836002015484600101546040516123a59493929190613bf6565b60405180910390a15050565b6123b9612492565b7fde10a6ba2a7febfd272ec63ec9c56214f930c353074d9a925fdc20e976c9ce4a816040516123e8919061300c565b60405180910390a150565b6123fb612492565b600073ffffffffffffffffffffffffffffffffffffffff168173ffffffffffffffffffffffffffffffffffffffff160361246d5760006040517f1e4fbdf70000000000000000000000000000000000000000000000000000000081526004016124649190613076565b60405180910390fd5b6124768161273e565b50565b601260049054906101000a900460ff1681565b600c5481565b61249a612519565b73ffffffffffffffffffffffffffffffffffffffff166124b861163f565b73ffffffffffffffffffffffffffffffffffffffff1614612517576124db612519565b6040517f118cdaa700000000000000000000000000000000000000000000000000000000815260040161250e9190613076565b60405180910390fd5b565b600033905090565b61252e838383600161295e565b505050565b600061253f8484611e27565b90507fffffffffffffffffffffffffffffffffffffffffffffffffffffffffffffffff8110156125c257818110156125b2578281836040517ffb8f41b20000000000000000000000000000000000000000000000000000000081526004016125a993929190613e7d565b60405180910390fd5b6125c18484848403600061295e565b5b50505050565b600073ffffffffffffffffffffffffffffffffffffffff168373ffffffffffffffffffffffffffffffffffffffff160361263a5760006040517f96c6fd1e0000000000000000000000000000000000000000000000000000000081526004016126319190613076565b60405180910390fd5b600073ffffffffffffffffffffffffffffffffffffffff168273ffffffffffffffffffffffffffffffffffffffff16036126ac5760006040517fec442f050000000000000000000000000000000000000000000000000000000081526004016126a39190613076565b60405180910390fd5b6126b7838383612b35565b505050565b600073ffffffffffffffffffffffffffffffffffffffff168273ffffffffffffffffffffffffffffffffffffffff160361272e5760006040517fec442f050000000000000000000000000000000000000000000000000000000081526004016127259190613076565b60405180910390fd5b61273a60008383612b35565b5050565b6000600560009054906101000a900473ffffffffffffffffffffffffffffffffffffffff16905081600560006101000a81548173ffffffffffffffffffffffffffffffffffffffff021916908373ffffffffffffffffffffffffffffffffffffffff1602179055508173ffffffffffffffffffffffffffffffffffffffff168173ffffffffffffffffffffffffffffffffffffffff167f8be0079c531659141344cd1fd0a4f28419497f9722a3daafe3b4186f6b6457e060405160405180910390a35050565b60008073ffffffffffffffffffffffffffffffffffffffff16601b60009054906101000a900473ffffffffffffffffffffffffffffffffffffffff1673ffffffffffffffffffffffffffffffffffffffff1614612909576000601b60009054906101000a900473ffffffffffffffffffffffffffffffffffffffff1673ffffffffffffffffffffffffffffffffffffffff1663d3dd2bdf846040518263ffffffff1660e01b81526004016128b89190613076565b602060405180830381865afa1580156128d5573d6000803e3d6000fd5b505050506040513d601f19601f820116820180604052508101906128f99190613ec9565b9050601c54811015915050612959565b601a60008373ffffffffffffffffffffffffffffffffffffffff1673ffffffffffffffffffffffffffffffffffffffff16815260200190815260200160002060009054906101000a900460ff1690505b919050565b600073ffffffffffffffffffffffffffffffffffffffff168473ffffffffffffffffffffffffffffffffffffffff16036129d05760006040517fe602df050000000000000000000000000000000000000000000000000000000081526004016129c79190613076565b60405180910390fd5b600073ffffffffffffffffffffffffffffffffffffffff168373ffffffffffffffffffffffffffffffffffffffff1603612a425760006040517f94280d62000000000000000000000000000000000000000000000000000000008152600401612a399190613076565b60405180910390fd5b81600160008673ffffffffffffffffffffffffffffffffffffffff1673ffffffffffffffffffffffffffffffffffffffff16815260200190815260200160002060008573ffffffffffffffffffffffffffffffffffffffff1673ffffffffffffffffffffffffffffffffffffffff168152602001908152602001600020819055508015612b2f578273ffffffffffffffffffffffffffffffffffffffff168473ffffffffffffffffffffffffffffffffffffffff167f8c5be1e5ebec7d5bd14f71427d1e84f3dd0314c0f7b2291e5b200ac8c7c3b92584604051612b26919061300c565b60405180910390a35b50505050565b600073ffffffffffffffffffffffffffffffffffffffff168373ffffffffffffffffffffffffffffffffffffffff1603612b87578060026000828254612b7b919061382b565b92505081905550612c5a565b60008060008573ffffffffffffffffffffffffffffffffffffffff1673ffffffffffffffffffffffffffffffffffffffff16815260200190815260200160002054905081811015612c13578381836040517fe450d38c000000000000000000000000000000000000000000000000000000008152600401612c0a93929190613e7d565b60405180910390fd5b8181036000808673ffffffffffffffffffffffffffffffffffffffff1673ffffffffffffffffffffffffffffffffffffffff16815260200190815260200160002081905550505b600073ffffffffffffffffffffffffffffffffffffffff168273ffffffffffffffffffffffffffffffffffffffff1603612ca35780600260008282540392505081905550612cf0565b806000808473ffffffffffffffffffffffffffffffffffffffff1673ffffffffffffffffffffffffffffffffffffffff168152602001908152602001600020600082825401925050819055505b8173ffffffffffffffffffffffffffffffffffffffff168373ffffffffffffffffffffffffffffffffffffffff167fddf252ad1be2c89b69c2b068fc378daa952ba7f163c4a11628f55a4df523b3ef83604051612d4d919061300c565b60405180910390a3505050565b600080fd5b600080fd5b600073ffffffffffffffffffffffffffffffffffffffff82169050919050565b6000612d8f82612d64565b9050919050565b612d9f81612d84565b8114612daa57600080fd5b50565b600081359050612dbc81612d96565b92915050565b6000819050919050565b612dd581612dc2565b8114612de057600080fd5b50565b600081359050612df281612dcc565b92915050565b60008060408385031215612e0f57612e0e612d5a565b5b6000612e1d85828601612dad565b9250506020612e2e85828601612de3565b9150509250929050565b600060208284031215612e4e57612e4d612d5a565b5b6000612e5c84828501612de3565b91505092915050565b612e6e81612dc2565b82525050565b600081519050919050565b600082825260208201905092915050565b60005b83811015612eae578082015181840152602081019050612e93565b60008484015250505050565b6000601f19601f8301169050919050565b6000612ed682612e74565b612ee08185612e7f565b9350612ef0818560208601612e90565b612ef981612eba565b840191505092915050565b60008115159050919050565b612f1981612f04565b82525050565b6000608082019050612f346000830187612e65565b8181036020830152612f468186612ecb565b9050612f556040830185612e65565b612f626060830184612f10565b95945050505050565b600060ff82169050919050565b612f8181612f6b565b82525050565b6000602082019050612f9c6000830184612f78565b92915050565b60006020820190508181036000830152612fbc8184612ecb565b905092915050565b6000602082019050612fd96000830184612f10565b92915050565b600060208284031215612ff557612ff4612d5a565b5b600061300384828501612dad565b91505092915050565b60006020820190506130216000830184612e65565b92915050565b6000806040838503121561303e5761303d612d5a565b5b600061304c85828601612de3565b925050602061305d85828601612dad565b9150509250929050565b61307081612d84565b82525050565b600060208201905061308b6000830184613067565b92915050565b6000806000606084860312156130aa576130a9612d5a565b5b60006130b886828701612dad565b93505060206130c986828701612dad565b92505060406130da86828701612de3565b9150509250925092565b600080fd5b600080fd5b600080fd5b60008083601f840112613109576131086130e4565b5b8235905067ffffffffffffffff811115613126576131256130e9565b5b602083019150836001820283011115613142576131416130ee565b5b9250929050565b600080602083850312156131605761315f612d5a565b5b600083013567ffffffffffffffff81111561317e5761317d612d5f565b5b61318a858286016130f3565b92509250509250929050565b600080604083850312156131ad576131ac612d5a565b5b60006131bb85828601612de3565b92505060206131cc85828601612de3565b9150509250929050565b6131df81612f04565b81146131ea57600080fd5b50565b6000813590506131fc816131d6565b92915050565b6000806040838503121561321957613218612d5a565b5b600061322785828601612de3565b9250506020613238858286016131ed565b9150509250929050565b6000806040838503121561325957613258612d5a565b5b600061326785828601612dad565b925050602061327885828601612dad565b9150509250929050565b600060e082019050613297600083018a612e65565b6132a46020830189612e65565b6132b16040830188612e65565b6132be6060830187612f10565b6132cb6080830186612f10565b6132d860a0830185613067565b6132e560c0830184612e65565b98975050505050505050565b6000819050919050565b600061331661331161330c84612d64565b6132f1565b612d64565b9050919050565b6000613328826132fb565b9050919050565b600061333a8261331d565b9050919050565b61334a8161332f565b82525050565b60006020820190506133656000830184613341565b92915050565b7f4e487b7100000000000000000000000000000000000000000000000000000000600052602260045260246000fd5b600060028204905060018216806133b257607f821691505b6020821081036133c5576133c461336b565b5b50919050565b7f4e487b7100000000000000000000000000000000000000000000000000000000600052604160045260246000fd5b60008190508160005260206000209050919050565b60006020601f8301049050919050565b600082821b905092915050565b60006008830261345c7fffffffffffffffffffffffffffffffffffffffffffffffffffffffffffffffff8261341f565b613466868361341f565b95508019841693508086168417925050509392505050565b600061349961349461348f84612dc2565b6132f1565b612dc2565b9050919050565b6000819050919050565b6134b38361347e565b6134c76134bf826134a0565b84845461342c565b825550505050565b600090565b6134dc6134cf565b6134e78184846134aa565b505050565b5b8181101561350b576135006000826134d4565b6001810190506134ed565b5050565b601f82111561355057613521816133fa565b61352a8461340f565b81016020851015613539578190505b61354d6135458561340f565b8301826134ec565b50505b505050565b600082821c905092915050565b600061357360001984600802613555565b1980831691505092915050565b600061358c8383613562565b9150826002028217905092915050565b6135a582612e74565b67ffffffffffffffff8111156135be576135bd6133cb565b5b6135c8825461339a565b6135d382828561350f565b600060209050601f83116001811461360657600084156135f4578287015190505b6135fe8582613580565b865550613666565b601f198416613614866133fa565b60005b8281101561363c57848901518255600182019150602085019450602081019050613617565b868310156136595784890151613655601f891682613562565b8355505b6001600288020188555050505b505050505050565b82818337600083830152505050565b60006136898385612e7f565b935061369683858461366e565b61369f83612eba565b840190509392505050565b60006040820190506136bf6000830186612e65565b81810360208301526136d281848661367d565b9050949350505050565b7f4e487b7100000000000000000000000000000000000000000000000000000000600052601160045260246000fd5b600061371682612dc2565b91507fffffffffffffffffffffffffffffffffffffffffffffffffffffffffffffffff8203613748576137476136dc565b5b600182019050919050565b7f4e6f7420626f72726f7765720000000000000000000000000000000000000000600082015250565b6000613789600c83612e7f565b915061379482613753565b602082019050919050565b600060208201905081810360008301526137b88161377c565b9050919050565b7f4c6f616e20616c72656164792072657061696400000000000000000000000000600082015250565b60006137f5601383612e7f565b9150613800826137bf565b602082019050919050565b60006020820190508181036000830152613824816137e8565b9050919050565b600061383682612dc2565b915061384183612dc2565b9250828201905080821115613859576138586136dc565b5b92915050565b60006040820190506138746000830185612e65565b6138816020830184613067565b9392505050565b7f416c726561647920766f74656400000000000000000000000000000000000000600082015250565b60006138be600d83612e7f565b91506138c982613888565b602082019050919050565b600060208201905081810360008301526138ed816138b1565b9050919050565b60006060820190506139096000830186612e65565b6139166020830185613067565b6139236040830184612e65565b949350505050565b600061393682612dc2565b915061394183612dc2565b925082820261394f81612dc2565b91508282048414831517613966576139656136dc565b5b5092915050565b7f4e487b7100000000000000000000000000000000000000000000000000000000600052601260045260246000fd5b60006139a782612dc2565b91506139b283612dc2565b9250826139c2576139c161396d565b5b828204905092915050565b7f4b5943206e6f7420766572696669656400000000000000000000000000000000600082015250565b6000613a03601083612e7f565b9150613a0e826139cd565b602082019050919050565b60006020820190508181036000830152613a32816139f6565b9050919050565b6000608082019050613a4e6000830187612e65565b613a5b6020830186613067565b613a686040830185612e65565b613a756060830184612f10565b95945050505050565b6000613a8982612dc2565b9150613a9483612dc2565b9250828203905081811115613aac57613aab6136dc565b5b92915050565b7f496e76616c6964206672616374696f6e00000000000000000000000000000000600082015250565b6000613ae8601083612e7f565b9150613af382613ab2565b602082019050919050565b60006020820190508181036000830152613b1781613adb565b9050919050565b7f50726f7065727479206e6f742076616c75656400000000000000000000000000600082015250565b6000613b54601383612e7f565b9150613b5f82613b1e565b602082019050919050565b60006020820190508181036000830152613b8381613b47565b9050919050565b7f496e73756666696369656e74207061796d656e74000000000000000000000000600082015250565b6000613bc0601483612e7f565b9150613bcb82613b8a565b602082019050919050565b60006020820190508181036000830152613bef81613bb3565b9050919050565b6000608082019050613c0b6000830187612e65565b613c186020830186613067565b613c256040830185612e65565b613c326060830184612e65565b95945050505050565b7f4e6f206672616374696f6e206f776e6564000000000000000000000000000000600082015250565b6000613c71601183612e7f565b9150613c7c82613c3b565b602082019050919050565b60006020820190508181036000830152613ca081613c64565b9050919050565b7f43726564697420686973746f7279206e6f7420657863656c6c656e7400000000600082015250565b6000613cdd601c83612e7f565b9150613ce882613ca7565b602082019050919050565b60006020820190508181036000830152613d0c81613cd0565b9050919050565b7f4372656469742065786365656473206c696d6974000000000000000000000000600082015250565b6000613d49601483612e7f565b9150613d5482613d13565b602082019050919050565b60006020820190508181036000830152613d7881613d3c565b9050919050565b7f496e73756666696369656e742072657061796d656e7420666f7220726566696e60008201527f616e63696e670000000000000000000000000000000000000000000000000000602082015250565b6000613ddb602683612e7f565b9150613de682613d7f565b604082019050919050565b60006020820190508181036000830152613e0a81613dce565b9050919050565b7f4c6f616e206973206f7665726475650000000000000000000000000000000000600082015250565b6000613e47600f83612e7f565b9150613e5282613e11565b602082019050919050565b60006020820190508181036000830152613e7681613e3a565b9050919050565b6000606082019050613e926000830186613067565b613e9f6020830185612e65565b613eac6040830184612e65565b949350505050565b600081519050613ec381612dcc565b92915050565b600060208284031215613edf57613ede612d5a565b5b6000613eed84828501613eb4565b9150509291505056fea2646970667358221220d94d2ac5e574810825bc9ab811239423c8dd91c045b83e318a260d82ab32855264736f6c63430008140033",
  "linkReferences": {},
  "deployedLinkReferences": {}
}